:10000000EF004002B76200009382821A9382F2FFEF
:10001000E39E02FE1302120093C1F10F23A03700EA
:100020006FF05FFE171100001301C1BD1301C1FF86
:100030002320110093028009EF00C002B70700D00F
:1000400013030000238067001303F00FA3806700F1
:10005000B70700D0938707018320010013014100F7
:1000600067800000130181FF2322710023206100BB
:10007000370300C083C302006388030023007300BA
:1000800093821200E30800FE032301008323410052
:080090001301810067800000EC
:0600980048656C6C6F006E
:1010000003030303030303030202020202020202B8
:00000001FF
