:10000000EF000009EF004000B3010000EF004006E0
:10001000038317009354830193F4F40F13F4F10056
:10002000B38284002380570093811100EFF01FFEFC
:1000300093021000B301000013040008238057004E
:10004000EF0000036388010093D21200638A32003C
:100050006FF0DFFE93921200638882006FF01FFE44
:10006000B30100006FF09FFD930110006FF01FFDC2
:100070001301C1FF2320410037C2000013020235E3
:100080001302F2FF03220100130141006780000008
:1000900017110000130101B71301C1FF2320110044
:1000A00093024010EF00C002B70700D01303000016
:1000B000238067001303F00FA3806700B70700D009
:1000C000938707018320010013014100678000002E
:1000D000130181FF2322710023206100370300C038
:1000E00083C302006388030023007300938212001D
:1000F000E30800FE03230100832341001301810074
:040100006780000014
:100104004C61622031200A20436F756E7465722041
:10011400616E642043796C6F6E204579652061744B
:100124002035487A0A005768617420486170706508
:060134006E65643F0A0045
:081000000303030303030303D0
:00000001FF
