:10000000EF00C00AEF00400283802700E38E00FE6D
:10001000EF00401A2380A700371500001305459C08
:10002000EF000016EFF05FFE93028027EF00000C58
:1000300023800700EF000018B7530000938303E20A
:1000400033057500EF00C0139302100023805700A2
:100050001306000013051000EF00801213061600AF
:1000600083832700E38803FE9302A028EF000008A3
:10007000B302C000EF00C00AB305C0009303300014
:100080002380B7009383F3FF93D5850037150000D5
:1000900013058538EF00C00EE39403FE37250000FA
:1000A00013050571EF00C00D6FF01FFD1711000063
:1000B000130141B51301C1FF232011009302002455
:1000C000EF00C002370700D0230007001303F00F32
:1000D000A300670023016700B70700D093870701DB
:1000E000832001001301410067800000130181FF9C
:1000F0002322710023206100370300C083C3020064
:10010000638803002300730093821200E30800FE5B
:100110000323010083234100130181006780000055
:10012000130101FF232671002324410023226100D3
:100130002320810013028000370400C0370300F041
:10014000B3F3620093D3C30113039000637473008D
:1001500093837300938303032300740093924200FC
:100160001302F2FFE31C02FC23267100232441004A
:100170002322610023208100130101016780000018
:10018000130181FF23207100232261001303A000CB
:100190009303000093831300E37E73FE1305F5FFC2
:1001A000E31605FE23226100832301001301810071
:1001B00067800000130101FF23205100232261000A
:1001C00023247100232631009301502983A20100CA
:1001D00037830000B3F362003723000033F362007B
:1001E00013132300B3C363003713000033F362001B
:1001F00013133300B3C363001303004033F36200EF
:1002000013135300B3C3630093D3F300939212000C
:10021000B3E27200370301001303F3FFB3F262008D
:1002200023A05100138502008321C1008323810094
:1002300003234100832201001301010167800000B4
:100240005265616374696F6E2054696D65202D205D
:10025000507265737320616E7920627574746F6E6D
:10026000207768656E20746865204C45447320745F
:1002700075726E206F6E0A004765542052454144E6
:10028000590A00446F6E65210A000A44656C617961
:090290003A20307800140000004F
:1010000003030303030303030202020202020202B8
:081010000101010101010101D0
:00000001FF
