:100000006F00C002130181FF2322710023206100D1
:1000100023050700230707003306B0000323010070
:10002000832341001301810073002030EF00C004DE
:10003000130210002303470033060000EF00800185
:1000400013054006EF00801093C2F20F2380570083
:10005000E30806FEEF00C0129375F50F2380C7007A
:10006000B302C000E30E06FC1306F6FF1305803E44
:10007000EF00C00DEFF01FFE17110000130181B853
:100080001301C1FF232011009302C020EF00C00222
:10009000370700D0230007001303F00FA300670009
:1000A00023016700B70700D0938707018320010071
:1000B0001301410067800000130181FF23227100BA
:1000C00023206100370300C083C30200638803005C
:1000D0002300730093821200E30800FE0323010053
:1000E000832341001301810067800000130101FF99
:1000F0002326710023244100232261002320810054
:1001000013028000370400C0370300F0B3F362002D
:1001100093D3C3011303900063747300938373003C
:100120009383030323007400939242001302F2FFAF
:10013000E31C02FC232671002324410023226100DA
:10014000232081001301010167800000130181FF5A
:1001500023207100232261001303A00093030000F9
:1001600093831300E37E73FE1305F5FFE31605FE8C
:1001700023226100832301001301810067800000B6
:10018000130101FF23205100232261002324710069
:10019000232631009301902583A2010037830000BC
:1001A000B3F362003723000033F36200131323001C
:1001B000B3C363003713000033F36200131333003B
:1001C000B3C363001303004033F3620013135300FF
:1001D000B3C3630093D3F30093921200B3E27200AF
:1001E000370301001303F3FFB3F2620023A05100B1
:1001F000138502008321C100832381000323410072
:0C0200008322010013010101678000004F
:10020C004C61622034203A20496E746572727570AC
:10021C0074730A446F776E68696C6C2072756E200B
:10022C00746F207468652066696E6973682E0A00A5
:10023C004765542052454144590A00446F6E65216C
:10024C000A000A44656C61793A2030780034120057
:01025C0000A1
:1010000003030303030303030202020202020202B8
:081010000101010101010101D0
:00000001FF
